:1000000060230020C9220000D38F0000B522000029
:10001000B5220000B5220000B5220000000000005B
:10002000000000000000000000000000D1200000DF
:10003000B5220000000000007D200000B522000075
:10004000352000003520000035200000352000005C
:10005000352000003520000035200000352000004C
:10006000352000003520000035200000352000003C
:10007000352000003520000035200000352000002C
:10008000352000003520000035200000352000001C
:10009000352000003520000035200000352000000C
:1000A00035200000352000003520000035200000FC
:1000B00035200000352000003520000035200000EC
:1000C00035200000352000003520000035200000DC
:1000D00035200000352000003520000035200000CC
:1000E00035200000352000003520000035200000BC
:1000F00035200000352000003520000035200000AC
:100100004FF0FF0C1CEAD0521EBF1CEAD15392EAFA
:100110000C0F93EA0C0F6FD01A4480EA010C4002D6
:1001200018BF5FEA41211ED04FF0006343EA501030
:1001300043EA5111A0FB01310CF00040B1F5000F72
:100140003EBF490041EAD3715B0040EA010062F121
:100150007F02FD2A1DD8B3F1004F40EBC25008BF0B
:1001600020F00100704790F0000F0CF0004C08BF29
:1001700049024CEA502040EA51207F3AC2BFD2F1F6
:10018000FF0340EAC250704740F400004FF0000304
:10019000013A5DDC12F1190FDCBF00F0004070473E
:1001A000C2F10002410021FA02F1C2F1200200FA7C
:1001B00002FC5FEA310040F1000053EA4C0308BF43
:1001C00020EADC70704792F0000F00F0004C02BF94
:1001D000400010F4000F013AF9D040EA0C0093F00F
:1001E000000F01F0004C02BF490011F4000F013B69
:1001F000F9D041EA0C018FE70CEAD15392EA0C0FD7
:1002000018BF93EA0C0F0AD030F0004C18BF31F041
:10021000004CD8D180EA010000F00040704790F017
:10022000000F17BF90F0004F084691F0000F91F0BB
:10023000004F14D092EA0C0F01D142020FD193EA81
:100240000C0F03D14B0218BF084608D180EA010009
:1002500000F0004040F0FE4040F40000704740F0E5
:10026000FE4040F44000704780F0004002E000BFD4
:1002700081F0004142001FBF5FEA410392EA030F91
:100280007FEA226C7FEA236C6AD04FEA1262D2EBDB
:100290001363C1BFD218414048404140B8BF5B42E0
:1002A000192B88BF704710F0004F40F4000020F079
:1002B0007F4018BF404211F0004F41F4000121F08F
:1002C0007F4118BF494292EA030F3FD0A2F10102D9
:1002D00041FA03FC10EB0C00C3F1200301FA03F117
:1002E00000F0004302D5494260EB4000B0F5000F3A
:1002F00013D3B0F1807F06D340084FEA310102F1F9
:100300000102FE2A51D2B1F1004F40EBC25008BFAA
:1003100020F0010040EA03007047490040EB000074
:10032000013A28BFB0F5000FEDD2B0FA80FCACF175
:10033000080CB2EB0C0200FA0CF0AABF00EBC250A2
:1003400052421843BCBFD0401843704792F0000F90
:1003500081F4000106BF80F400000132013BB5E7E3
:100360004FEA41037FEA226C18BF7FEA236C21D059
:1003700092EA030F04D092F0000F08BF08467047BE
:1003800090EA010F1CBF0020704712F07F4F04D18C
:10039000400028BF40F00040704712F100723CBF9F
:1003A00000F50000704700F0004343F0FE4040F4C9
:1003B000000070477FEA226216BF08467FEA236387
:1003C0000146420206BF5FEA412390EA010F40F472
:1003D000800070474FF0000304E000BF10F00043BE
:1003E00048BF40425FEA000C08BF704743F09643A5
:1003F00001464FF000001CE050EA010208BF7047C0
:100400004FF000030AE000BF50EA010208BF704746
:1004100011F0004302D5404261EB41015FEA010C5B
:1004200002BF84460146002043F0B64308BFA3F153
:100430008053A3F50003BCFA8CF2083AA3EBC25335
:1004400010DB01FA02FC634400FA02FCC2F1200254
:10045000BCF1004F20FA02F243EB020008BF20F08B
:100460000100704702F1200201FA02FCC2F12002F1
:1004700050EA4C0021FA02F243EB020008BF20EAE6
:10048000DC70704742000ED2B2F1FE4F0BD34FF03A
:100490009E03B3EB126209D44FEA002343F00043FA
:1004A00023FA02F070474FF00000704712F1610F1D
:1004B00001D1420202D14FF0FF3070474FF00000EF
:1004C000704700BF53B94AB9002908BF00281CBFB4
:1004D0004FF0FF314FF0FF3000F06CB9ADF1080C78
:1004E0006DE904CE00F006F8DDF804E0DDE9022352
:1004F00004B070472DE9F047089E0D4604468E462D
:10050000002B40F082808A42174646D9B2FA82F226
:100510004AB1C2F1200105FA02F320FA01F1974035
:1005200041EA030E94404FEA1748230CBEFBF8FC47
:10053000B9B208FB1CEE43EA0E430CFB01F09842F3
:100540000AD9FB180CF1FF3580F01681984240F271
:100550001381ACF1020C3B441B1AA4B2B3FBF8F0BC
:1005600008FB103344EA034400FB01F1A14209D91E
:100570003C1900F1FF3380F00181A14240F2FE807E
:1005800002383C44641A40EA0C4000211EB1D440B9
:100590000023C6E90043BDE8F08702B9FFDEB2FAE6
:1005A00082F2002A4FD1CB1B4FEA174E1FFA87F871
:1005B0000121B3FBFEFC250C0EFB1C3345EA034571
:1005C00008FB0CF3AB4207D97D190CF1FF3002D2C6
:1005D000AB4200F2E7808446ED1AA3B2B5FBFEF011
:1005E0000EFB105543EA054408FB00F8A04507D967
:1005F0003C1900F1FF3302D2A04500F2D780184623
:10060000A4EB080440EA0C40C0E78B4208D9002E56
:1006100000F0AF800021C6E900050846BDE8F0877C
:10062000B3FA83F100294BD1AB4202D3824200F2EC
:10063000B780841A65EB030301209E46002EAAD0E2
:10064000C6E9004EA7E7C2F1200C01FA02F3974079
:1006500020FA0CF04FEA174E21FA0CFC1843BCFBB1
:10066000FEF1050C0EFB11CC1FFA87F845EA0C458C
:1006700001FB08F3AB4204FA02F409D97D1901F138
:10068000FF3C80F08B80AB4240F2888002393D44D1
:10069000EB1A85B2B3FBFEF00EFB103345EA0345BF
:1006A00000FB08F3AB4207D97D1900F1FF3C71D282
:1006B000AB426FD902383D44EB1A40EA014178E77A
:1006C000C1F1200C8B4022FA0CF71F4320FA0CF4E6
:1006D00005FA01F34FEA174E25FA0CF51C43230CDB
:1006E000B5FBFEF91FFA87F80EFB195543EA0545DD
:1006F00009FB08FAAA4502FA01F200FA01F308D947
:100700007D1909F1FF3047D2AA4545D9A9F102095F
:100710003D44A5EB0A05A4B2B5FBFEF00EFB105557
:1007200044EA054400FB08F8A04507D93C1900F14C
:10073000FF352DD2A0452BD902383C4440EA094070
:10074000A4EB0804A0FB02894C45C6464D4619D3CC
:1007500016D05EB1B3EB0E0264EB050404FA0CFC98
:10076000CA404CEA0202CC40C6E900240021BDE8A0
:10077000F087314630460EE7AC46EDE6184601E715
:100780004345E6D2B8EB020E69EB07050138E0E716
:100790002846D3E760468FE78146BAE7614677E7A8
:1007A00008464BE7ACF1020C3D4415E702383C44E7
:1007B00026E700BF704700BF37B5084D084C4FF023
:1007C000FF324FF0FF33284605F0FAFAC823694696
:1007D0002046ADF8043008F059FFF0E7D8050020B6
:1007E000BC0500202DE9F04F554889B008F0CBFB3F
:1007F000544808F0C8FB0121534808F0C4FB534893
:1008000008F0C1FB5248534E04F04EFD306010B961
:10081000514808F0B8FB3068836850491B68984716
:10082000014610B14E4808F0AEFB4E4B0122DA6093
:1008300008F076FF4FF47A730A46A0FB030103FB2E
:100840000211C30B43EA4143CA0B13F57A74464FB6
:10085000DFF83081DFF8309142F1000514220021E9
:1008600003A808F0F1FB022330680693CDE90437B2
:100870000A238DF81C3000284AD13C4808F083FB3D
:100880004FF0FF3AB7F800B04FF47A7000FB0BF06E
:10089000FFF7A4FD4946FFF733FCFFF7F3FD344BA8
:1008A00082B21A60BAF1000F3ED03248514608F0C9
:1008B0006AFB64233048ADF8083001A908F0E6FE71
:1008C00008F02EFF4FF47A730A46A0FB030103FBE6
:1008D0000211C20B42EA4142CB0BA24273EB05016B
:1008E000BCDAA4EB020C2CEAEC7C4FF4004E40F294
:1008F000E73000214FF47A720023CEFB0C01FFF7A2
:10090000E1FD06F08BFB14F57A7445F10005A5E7CF
:10091000836803A95B68984782460028B2D00146E5
:10092000404608F030FBADE7BBF5806F03D31348BA
:1009300008F029FBBDE71248594608F024FBB8E748
:10094000E49C0000FE9C0000199D0000659D0000D5
:10095000909D0000B8050020969D0000DC9C0000E2
:10096000B79D000000700040240D0020E69D0000AF
:10097000FC050020359E0000D80500205E9E00008A
:10098000799E0000159E00000C30403B2DE9F04F91
:1009900085B0334804F088FC064628B9314808F091
:1009A000F2FA05B0BDE8F08F2F4808F0ECFA4FF0EE
:1009B000FF324FF0FF332D4805F002FA2C4B188818
:1009C0004FF47A7808FB00F0FFF708FD2949FFF79C
:1009D00097FBFFF757FD642480B2444340F6B830DC
:1009E000B4FBF0F42448214608F0CDFAB36802AA1B
:1009F0005B680E213046984707460028D7D1DDE9CD
:100A000002B5ABFB089A08FB05AA1C4A002348461E
:100A10005146FFF757FD1A4B4FF0FF32534508BFC1
:100A20004A458046C3D3E31765430BFB0353A4FB3E
:100A30000B451D44114A002320462946FFF742FD7D
:100A40000F4A4FF0FF31AA4208BFA1420346AED37E
:100A5000B268009714680E2142463046A047A6E7C8
:100A60009B9E0000A19E0000C29E0000BC050020CD
:100A7000240D00200C30403BDD9E000040420F0062
:100A80003F420F002DE9F041214888B008F07BFA81
:100A9000204808F0EEFD204808F0EBFD0026002776
:100AA00000240125CDE90667CDE90354CDE90144D1
:100AB0001A4B1B4900944FF480621A4806F066FDF9
:100AC000194B1860194B1A490094CDE90667CDE916
:100AD0000354CDE901444FF480621648DFF8648086
:100AE00006F054FDC8F80000134B14490094CDE9FA
:100AF0000667CDE90354CDE901444FF48062104804
:100B000006F044FDC8F8000008B0BDE8F08100BF61
:100B1000F99E0000D8050020BC050020E507000074
:100B20000013002070020020F4050020B907000027
:100B300020170020F00200208D090000401B00203B
:100B400070030020F80500202DE9F04F91B08B468E
:100B5000029092461C4600259AF8000008B92846E3
:100B60005EE325280AF1010707D0029B5946984702
:100B70000028C0F25583013510E2182200210AA88E
:100B800008F062FA9AF80130252B78D000229446BA
:100B9000164696461046394617F8013B2B2B00F0B7
:100BA0009D8000F29480202B00F09B80232B00F08E
:100BB0009A8028B19DF8300040F004008DF8300094
:100BC000BEF1000F05D09DF8300040F008008DF810
:100BD00030002EB19DF8300040F010008DF830004C
:100BE000BCF1000F05D09DF8300040F020008DF8DA
:100BF00030002AB19DF8302042F040028DF83020BC
:100C00009DF8302002F04400442803D16FF386128F
:100C10008DF830209DF830202A2B42F080028DF88C
:100C200030207BD19DF8312042F001024B1C8DF821
:100C300031201A782E2A9DF831200CBF0121002185
:100C400061F341028DF8312074D15A782A2A6AD092
:100C5000013300210A26184610F8012BA2F13007B3
:100C6000092F40F28E809DF830200E91C2F3400093
:100C700040EAD17161F341028DF830205AE00AF167
:100C800002078DF833309DF83130D90740F14981A2
:100C900054F8049BB9F1000F07DA9DF8302042F0B8
:100CA00004028DF83020C9F100095A0740F1428151
:100CB00054F8048BB8F1000F80F241819DF8313077
:100CC0006FF341038DF831304FF0FF3837E12D2BB2
:100CD0000CD0302B7FF46DAF01225CE74FF0010E9A
:100CE00059E7012657E74FF0010C54E7012052E77E
:100CF0000CFB0202303A33461E4616F8010BA0F1F7
:100D00003007092FF4D9994293D09DF830100D92F5
:100D1000D20F62F341018DF830108AE70B460022B2
:100D20004FF00A0CE8E79DF8312042F004028DF8FC
:100D3000312002331F4617F8012B6C2A41D025D8E9
:100D4000682A2BD06A2A46D04C2A4CD01F4617F866
:100D5000012B9DF831308DF83320782A00F2D980AC
:100D6000572A4DD8412A03D0453A022A00F2D180B1
:100D70009DF83230042262F302038DF832300123F1
:100D80009EE006FB01213039034664E7742A26D031
:100D90007A2ADBD19DF8313006220DE05A78682A94
:100DA0009DF8312006D1012161F3C6028DF8312072
:100DB0009F1CCCE71346022262F3C6038DF8313044
:100DC000C5E75A786C2A9DF8312001D10421EBE760
:100DD00013460322F0E79DF831300522ECE79DF839
:100DE00031300722E8E7BDF8303023F4F04323F038
:100DF000020343F4804343F00203ADF83030A6E72A
:100E0000A2F15801202900F2848001A050F821F0BD
:100E1000D50E0000130F0000130F0000130F000089
:100E2000130F0000130F0000130F0000130F00003A
:100E3000130F0000710D0000130F0000D50E00000D
:100E4000950E0000710D0000710D0000710D000085
:100E5000130F0000950E0000130F0000130F000089
:100E6000130F0000130F0000DD0E0000D50E000070
:100E7000F90E0000130F0000130F0000F90E000020
:100E8000130F0000D50E0000130F0000130F000019
:100E9000D50E00009DF83210012003F0780360F3B6
:100EA0000201402B8DF8321002BF9DF8301041F046
:100EB00001018DF83010632A31D1003B18BF0123A6
:100EC0009DF83020C2F340010B4363F341028DF8DB
:100ED0003020D8E69DF832100220DEE79DF832205F
:100EE00003F07803A3F14000032161F302024342BF
:100EF0008DF832204341E3E79DF83220032113F0BF
:100F0000780F61F302028DF8322014BF0123002311
:100F1000D6E79DF8303043F001038DF830300023E0
:100F2000CEE79DF93020002AB4BFDDF834904FF0B1
:100F3000FF39BAE69B077FF5C7AEDDF838809DF82C
:100F400031200023CDE90D339DF8323003F0070343
:100F5000012BC2F3C30236D1D31E042B20D8DFE805
:100F600003F00307071F1F0054F8040BC11704E028
:100F7000073424F00704F4E80201CDE90A019DF8E2
:100F8000303013F0030654D002983B46524659467F
:100F900007F05CFE0028C0F243810544BA46DBE559
:100FA00054F8040B012A4FEAE071CDE90A0105D19A
:100FB0009DF828300A9300230B93E0E7022ADED144
:100FC000BDF92800D2E7022B23D1D31E042B13D85E
:100FD000DFE803F0030A0A12120020680A900021D9
:100FE000231D0B911C46CAE7073424F00703F3E8DE
:100FF0000201CDE90A01F5E754F8043B0A93012AFE
:101000004FF000030B93D3D0022AB8D1BDF828309B
:10101000D0E7042B07D1073424F00704F4E80201D9
:10102000CDE90A01ABE7032B04BF54F8043B0A9354
:10103000A5E79DF833007828B0D8622822D8252863
:101040003FF493AD5828A9D10DF126030093DDE9B3
:101050000A0104AB0CAA07F0AEFD8246B8F1000FFE
:101060000DF126000CDB9DF83020A0EB0A036FF396
:10107000861298458DF8302002D9A8EB03030D9312
:1010800080463DE06338152888D801A151F820F04A
:1010900011110000751100009D0F00009D0F000050
:1010A0009D0F00009D0F0000751100009D0F0000B6
:1010B0009D0F00009D0F00009D0F0000D311000048
:1010C000A1110000A51100009D0F00009D0F000060
:1010D000E91000009D0F0000A11100009D0F00000D
:1010E0009D0F0000A1110000B8F1000FDDF828A04D
:1010F0000ADB4146504607F087FF0AEB000800264E
:10110000BAF1000F0CD149E7504607F076FFF4E73B
:101110000A9B8DF8103000260DF111080DF1100A10
:10112000A8EB0A0306B101339DF83220D0066BD537
:10113000023352060D9948BF0E9A0B4448BF9B18C4
:10114000B9F1000F79DD9DF83020A9EB0309C2F356
:1011500080030393530770D4500664D546B1029BB5
:1011600059463046984700285ADB039B01351E46F6
:10117000302359E01E0711D413F0100618BF2026A3
:10118000DDE90A23002A73F10001BFF65DAF524288
:1011900063EB4303CDE90A232D2655E72B26EFE722
:1011A000002651E70A9848B30DF1260300930CAAD4
:1011B00004AB002107F0FFFCBDF8323003F0EF0371
:1011C00043F4F04343F010038246ADF8323000267A
:1011D00044E70A9B072A3FF6E1AEDFE802F00D0480
:1011E000060D08080D0D1D70D8E61D80D6E62846B0
:1011F000E917C3E90001D1E61D60CFE6DFF8C4803E
:101200000646A8F1050A8BE7110748BF013390E7AE
:10121000184603935946029B98470028039B04DA1B
:1012200011B0BDE8F08F20234D444A46002AA5EBBB
:10123000090109F1FF39EBDC0D4636B1029B594635
:10124000304698470028EBDB01359DF83230D9064F
:1012500001D41A0706D5029B59463020984700282A
:10126000DEDB01359DF83230DB0607D59DF8330013
:10127000029B594698470028D2DB01350D9E2E442B
:10128000731B002B16DC029843465246594607F062
:10129000DDFC0028C4DB0544A944A9EB0503002BB1
:1012A0007FF77CAE029B5946202098470028B7DB89
:1012B0000135F2E7029B5946302098470028AFDB02
:1012C0000135DDE7199F0000F8B50D46002939D03A
:1012D00006680C1FA41BE70824F007043444A37815
:1012E000DB070DD4184A19491948A32307F04BFE10
:1012F0001848294607F047FE1348A32107F054FC7D
:101300003946304607F0B9FC384436F83030C01A58
:1013100087420DD00C4A10490D48AB2307F033FE2D
:101320000E48294607F02FFE0748AB2107F03CFC8A
:10133000638823F00103638039463046BDE8F840F6
:1013400007F058BDF8BD00BF1A9F00003B9F00008A
:101350004C9F0000699F0000A19F0000C79F0000F4
:101360004B422DE9F04703EA010731EA030306681F
:1013700014461FD0042F3D46B94628BF0425CF1B75
:1013800007F1FF3A1AEA070F0ED03349334A3448BF
:1013900040F2271307F0F7FD324807F0F4FD2F481D
:1013A00040F2271107F000FC7CB94FF000094846D5
:1013B000BDE8F087042904D8BDE8F047114607F0DE
:1013C0004ABD4FF000090425DAE7B368B3EBD40F48
:1013D000EBD904F10B013944491BC908304607F029
:1013E000A2FC80460028E0D009F1040505EBC00509
:1013F000354455447F422F40A7EB09094C44A9F1DD
:10140000040307349B1B24F00704A41BB0EBD30F89
:101410004FEAD3074FEAE40408D201463A46304681
:1014200007F0CEFC4146304607F02CFC39463046EA
:1014300007F023FC3844844207D23046224607F0A6
:10144000BFFC2146304607F01DFC06EBC70673883B
:1014500043F001037380AAE703A000001A9F000075
:101460004C9F00001EA00000B2F5802F2DE9F04136
:1014700006460D46174669D33D493E4A3E4840F26E
:10148000A51307F080FD3D4807F07DFD40F2A51152
:10149000384807F089FB043FEC1D3D4424F0070465
:1014A00025F007052D1B172D4FEAD5070ED8344917
:1014B000304A314840F2B51307F065FD314807F076
:1014C00062FD2C4840F2B51107F06EFBB7FA87F8C1
:1014D000C8F124084FEA8808346008F107060023A1
:1014E000F608E360731CBB42A7600ED92649214A67
:1014F000214840F2C51307F046FD224807F043FD9E
:101500001C4840F2C51107F04FFB04F11002A04443
:101510000023904529D1720042F00102628004EB61
:10152000C601BA1B500023804880611924F8366038
:1015300004EBC7074B8062537B8843F001037B8039
:1015400031462046BDE8F04107F09CBB042AA2D8F2
:101550000E49084A08484FF4D67307F014FD0948AD
:1015600007F011FD4FF4D67192E742F8043BD0E743
:101570003BA000001A9F00004C9F000051A00000FB
:10158000A2A0000089A00000CBA0000068A000007D
:10159000436803F00303022B70B504460E468160D6
:1015A00010D0032B04D0012B0FD10025284601E0D9
:1015B000056800200023636010B1314604F00AFB87
:1015C000284670BD00680025F4E7064A064907482A
:1015D000452307F0D8FC0348452107F0E5FA00252C
:1015E000E7E700BFF6A00000E2A800004C9F000063
:1015F000014807F047B900BFD89A000008B5D0B13C
:101600004368042B11D100220368BFF35B8F53E8BA
:10161000001F012903D143E800200028F7D1BFF3C0
:101620005B8F074808BF104608BD3BB1006804F057
:1016300093F90020F8E76FF4E040F5E70148F3E79D
:10164000E98FFFFFEA8FFFFF10B5044618B90D4B75
:101650000D485B689847616808290DD031F0040394
:101660000AD011F0020108D00848214604F010F811
:10167000002323600023636010BD2068142207F05C
:10168000E3FCF7E78C01002019A100000006002010
:1016900010B5044618B9164B16485B68984763683E
:1016A000042B23D0082B21D0CBB92368BBB9124817
:1016B0004FF0FF324FF0FF33214603F07DFF08B9B2
:1016C00023681BB90A4B0D485B68984720681422B1
:1016D000002107F0B9FC636843F0020363602068EF
:1016E00007F0A6FF636843F00103636010BD00BF0D
:1016F0008C01002019A10000000600203FA100007D
:1017000008B508B34368042B10D101220368BFF366
:101710005B8F53E8001F002903D143E80020002815
:10172000F7D1BFF35B8F0BD1002008BD53B1006828
:101730004FF0FF324FF0FF3304F00EF80028F3D0E3
:101740000348F2E70348F0E76FF4E040EDE700BF3D
:10175000E98FFFFFEA8FFFFF08B5064906484023DF
:10176000142207F049FFBDE808400449044807F087
:10177000EBB800BF2006002000060020F09A000011
:10178000E09A00002DE9F04FB0F81C9085B019F0F8
:10179000080F0446039222D001290CBF49F010091A
:1017A00049F02009A0F81C901434204605F0DAFF17
:1017B00068B99F4A9F49A048AC2307F0E4FB9F48C3
:1017C000214607F0E0FB9A48AC2107F0EDF9039BB6
:1017D00083F31188BFF36F8F05B0BDE8F08F984F8A
:1017E000DFF8548209F00709022906D1204607F0E4
:1017F00074FB0028D8D0012868D1D4F818B0A38B86
:10180000BBF1000F0ADA0026256823F00703C4E9BC
:10181000006643F00103A383019627E003F007026B
:10182000511F012934D8002123F00703062A256817
:101830009BB2C4E900110CD18D422A4638BF0A463A
:101840002AB1E18B12680131E183002AF8D143F01B
:101850000203A383204607F040FB06460028DBD0A6
:10186000A38B43F02003A38300230193A38B03F0F6
:1018700007024A45029203D0A268002A40F0F08095
:101880001DB9019A002A00F036814FF00009E9E005
:10189000042A0ED123F007039AB2A283204607F050
:1018A0001CFB054618B142F02002A28300250195D9
:1018B000DCE74046634940F21B133A4607F063FBFE
:1018C00040F21B11384607F06FF9EFE7032835D1D6
:1018D000B9F1000F0BD05C4940464FF4AB733A4668
:1018E00007F051FB4FF4AB71384607F05DF9236800
:1018F0005BB95649404640F257133A4607F043FB5E
:1019000040F25711384607F04FF923691B680193DD
:101910005BB94F4940464FF4AD733A4607F033FB8D
:101920004FF4AD71384607F03FF9A38B23F007035E
:1019300043F00603A3830025AB4697E7042832D182
:10194000B9F1020F0BD04349404640F25D133A46CD
:1019500007F019FB40F25D11384607F025F9E38BDB
:101960005BB13D4940464FF4AF733A4607F00BFB7D
:101970004FF4AF71384607F017F923695B6801939C
:101980005BB93349404640F261133A4607F0FBFA2F
:1019900040F26111384607F007F9A38B23F00703E3
:1019A00043F00403C6E7052832D1B9F1010F0BD08B
:1019B0002A4940464FF4B2733A4607F0E4FA4FF42E
:1019C000B271384607F0F0F823685BB91F4940460A
:1019D00040F265133A4607F0D6FA40F265113846F0
:1019E00007F0E2F823699B6801935BB91849404608
:1019F0004FF4B4733A4607F0C6FA4FF4B471384660
:101A000007F0D2F8A38B23F0070343F0050391E717
:101A10000C4940F26B133A46404607F0B4FA0025F1
:101A200040F26B11384607F0BFF8019584E700BF1C
:101A30000FA2000035A200004C9F00004CA2000045
:101A40006CA10000E2A800008EA100009AA1000095
:101A5000BDA10000D4A10000EAA10000F9A100008E
:101A60004FF0010943F0080304F1140AA383504620
:101A700005F078FE68B93A4A3A49AC23404607F087
:101A800082FA3948514607F07EFA3548AC2107F012
:101A90008BF8039B83F31188BFF36F8FB9F1000FAD
:101AA00038D1002D4BD1019B13B1304920469847C6
:101AB0004FF02003EFF3118B83F31288BFF36F8F86
:101AC0005046CDF80CB005F03FFE68B9244A2849CD
:101AD0008123404607F057FA2648514607F053FA4B
:101AE0001F48812107F060F8504605F04BFEA38B9C
:101AF00023F00803A383A38BDA0628D523F0100371
:101B0000A3830121B4F81C9009F0070900297FF490
:101B10006BAE49E6A1680029C3D00B68029A002B7E
:101B200038BF002399464B6820461E465B46B047A7
:101B3000B9F1000FB5D0D9F800304946EEE7294693
:101B4000029A2D685B46204607F0E3F9A9E713F0F7
:101B500020011EBF23F02003A3830221D2E700BF90
:101B60000FA2000035A200004CA20000791B00006B
:101B700061A2000076A20000F8B504460D4600F10F
:101B800014064FF02003EFF3118783F31288BFF39D
:101B90006F8F304605F0D8FD68B90C4A0C490D48E6
:101BA000812307F0F0F90C48314607F0ECF90748BB
:101BB000812106F0F9FF304605F0E4FDA5613A46C3
:101BC00020460121BDE8F840FFF7DCBD0FA2000070
:101BD00061A200004C9F000076A200002DE9F047B2
:101BE00004460F4607F0ABF9051E5EDB04F114094D
:101BF0004FF02003EFF3118A83F31288BFF36F8F46
:101C0000484605F0A1FD68B9384A39493948812369
:101C100007F0B9F93848494607F0B5F9334881214A
:101C200006F0C2FF484605F0ADFDE38BA28B4FF6F0
:101C3000FF718B4202F0070650D0022E24D10133EF
:101C4000E38335464FF00108484605F08BFD68B93F
:101C5000264A2A492748AC2307F095F928484946DF
:101C600007F091F92148AC2106F09EFF8AF3118814
:101C7000BFF36F8FB8F1000F17D0002332463946FB
:101C8000204607F046F910E0930701D0062E0FD149
:101C900000233B606368F3B9C4E900773546FEB9B9
:101CA000524602212046FFF76DFD2846BDE8F08729
:101CB000052E18D0012E0BD012490E48124A40F2C0
:101CC000C91307F060F9104840F2C91106F06CFF23
:101CD0006FF0040504E01F606760DFE76FF00A053E
:101CE0004FF00008B0E76FF08505F9E70FA200009C
:101CF00061A200004C9F000076A2000035A2000007
:101D00004CA20000F9A100006CA100002DE9F843ED
:101D100005464FF02003EFF3118683F31288BFF3DB
:101D20006F8F234805F010FD68B9224A22492348E5
:101D3000812307F028F91E49214807F024F91D489E
:101D4000812106F031FF1A4805F01CFD1D4B1C686F
:101D5000002C38BF00249CB11B4FDFF878804FF077
:101D60000C09D4E90132002D08BF13462BB198F8B5
:101D7000142009FB02F2B85C98472468002CF0D1CB
:101D80000B4805F0EFFC68B90A4A10490B48AC2330
:101D900007F0F9F806490E4807F0F5F80548AC21B8
:101DA00006F002FF86F31188BFF36F8FBDE8F8835A
:101DB000200B00200FA2000061A200004C9F000039
:101DC00076A20000240B0020300B002035A200007A
:101DD0004CA20000B00C002000F01F0301229A402A
:101DE0000A4BBFF35B8F400903EB800050E8003FD4
:101DF00043EA020140E8001CBCF1000FF6D1BFF33A
:101E00005B8F1A4214BF0120002070473C0B00205A
:101E100030B51D4B1D7DBFF35B8F05F01F03012205
:101E20009A401A4B690985B0D04303EB810353E80C
:101E3000001F01EA000443E8004CBCF1000FF6D19A
:101E4000BFF35B8F114217D0114C0C2202FB0542ED
:101E500007CA01AB83E807000E4A7AB193E807008E
:101E600007F00EF90020FFF751FF0C236B4300220F
:101E7000E118E250C1E9012205B030BD82F31188BA
:101E8000BFF36F8FEEE700BFB00C00202C0B0020DB
:101E9000300B0020819000002DE9F041374BDFF836
:101EA000F4801C7D88B007462046FFF795FF60B997
:101EB0006E463A462146304607F072F896E807002B
:101EC0000C2505FB048585E807000C23634308EB1C
:101ED000030218F80300650904F01F06C8B37B1C51
:101EE0000FD0D2F808E02648264A4FF4004C0021D3
:101EF0000023ECFB0E01FEF7E5FA0121381A05F08C
:101F000003FE04F0D1F80120FFF700FFBFF35B8F61
:101F10001D4B0122B24003EB850353E8001F114320
:101F200043E800100028F8D1BFF35B8F0C2303FBBC
:101F3000048494E8070005AB83E80700134A1AB14C
:101F400093E8070007F089F8FFF762FF04F0F0FD5F
:101F500001200F4ABFF35B8F0123B340DB4302EB49
:101F6000850555E8002F1A4045E800210029F8D1E1
:101F7000BFF35B8F08B0BDE8F08100BFB00C00205C
:101F80003F420F0040420F002C0B00205B900000EE
:101F90003C0B0020300B00200B6801330B60014B21
:101FA0001B681847D0000020014B1860704700BF25
:101FB000D000002007B50B460021024601910348DE
:101FC00001A9FEF7C1FD03B05DF804FB991F0000F5
:101FD00008B54FF02002EFF3118382F31288BFF3AC
:101FE0006F8F00F0A1FC034806F0CDFF00F00AF867
:101FF000FCE700BF8EA20000014910220A60704772
:1020000010ED00E072B6404080F31188BFF36F8F8F
:10201000BFF34F8F30BF62B6BFF36F8F704700BF03
:1020200072B6494081F3118820BF80F3118862B6EF
:10203000704700BF01B572B60B4A906900281EBFF9
:102040000021916107F0D1FA62B6EFF30580A0F1AB
:1020500010004FEAC0000549014409C99847BDE88E
:102060000140034908470000B00C00201C99000003
:102070009922000030BFFFF7FDBF00BF12498A68F8
:102080004FF030001044EFF3098C80E8F01F20205F
:1020900080F31288BFF36F8F0C4F4FF00066CA6950
:1020A0008A603E60906F0023936780F3118804B5C7
:1020B000104600F0E7FABDE8044002F1300090E875
:1020C000F01F8CF309887047B00C002004ED00E08D
:1020D0001EF0040F0CBFEFF30880EFF30980816955
:1020E00011F8021C0229FFD001B506F06AFF01BDFC
:1020F00043B2002B08DB012200F01F0002FA00F0BF
:102100005B09024A42F82300704700BF00E100E08B
:10211000054B420900F01F0053F82220012303FA67
:1021200000F01040704700BF00E100E070B54C1CAB
:10213000072C05460E460FD9114A12491248592359
:1021400006F021FF1148314607232A4606F01BFFFF
:102150000B48592106F028FD6BB2002BACBF03F1F0
:1021600060430B4B4FEA4414B8BF05F00F05E4B2CF
:10217000AABF03F561435C5583F8004370BD00BFFF
:10218000B7A20000EDA200004C9F000008A30000D1
:1021900014ED00E00B4A08B50B4B22F07F029A6069
:1021A000BFF34F8FBFF36F8FD3F8882022F47002F4
:1021B000C3F8882003F048F906F074F900F0F6F946
:1021C00003F04CF90000000000ED00E0094A0A4964
:1021D00093680968D967094998674B6843F0805349
:1021E0004B60002383F31188BFF36F8F9368D86F20
:1021F000704700BFB00C0020509C000000ED00E0D4
:1022000042F8203C009B42F81C3C0A49019B42F8E2
:10221000183C029B42F8143C21F001014FF08073FE
:1022200042F8043C42F8081C0023203A0265836708
:10223000704700BFAB8F00000B4A0346906890B117
:1022400013F1160F806E05D0A0F120029A4206D835
:10225000834204D281422CBF0021012100E00021F1
:10226000002908BF00207047B00C002008B5094BBA
:1022700098600D46144600F005FA204685F309885B
:10228000002163B681F31188BFF36F8F0022002312
:1022900006F08BFEB00C0020044B9968D869884288
:1022A00003D003494FF080520A607047B00C002001
:1022B00004ED00E0EFF30880EFF3098101B5724609
:1022C00000F0AEF801BD00BF002080F31488BFF31A
:1022D0006F8F07F089FA00200D490860BFF34F8F18
:1022E0000C4880F3088800F07DF9202080F31188E5
:1022F00009484FF40261401880F30988EFF3148015
:102300000221084380F31488BFF36F8FFFF742FF69
:1023100094ED00E060230020E0240020234B70B502
:1023200015469A6A9A6A9A6A044690071AD5586BB3
:102330009A6A120616D519B19A6A22F080029A6238
:102340009A6A9A6A9A6AD6060FD49B6A99070CD43D
:102350000024164A936A43F0FF03936200232B7014
:10236000204670BD6FF01500EAE7104E73681A053D
:10237000EED52146FFF760FF044618B180F30988C7
:102380000224E6E7B36ADB06E2D5094A09490A48AE
:1023900040F2491306F0F7FD084806F0F4FD044842
:1023A00040F2491106F000FCD3E700BF00ED00E069
:1023B00048A3000082A300004C9F0000CCA30000B3
:1023C0000D4B9A6A9A6A9A6A920508D59A6B9A6A2C
:1023D000120404D518B19A6A22F400429A62064B9C
:1023E0009A6A9A6AD20558BF9A6A9A6A002042F499
:1023F0007F429A620870704700ED00E0074B9A6ACE
:102400009A6A9A6A9A6A9A6A9A6A9A6A6FEA024217
:102410006FEA12429A620020704700BF00ED00E0B0
:1024200070B5544B5C688AB00D46C4F308040026AE
:1024300086F31188BFF36F8F02F07F43B3F17F4FB4
:1024400008D102F00C03082B04D012075CBF05462C
:1024500001267DB9484A4949494840F2F23306F01D
:1024600092FD484806F08FFD434840F2F23106F0F5
:102470009BFB002500238DF80730E31E032B72D849
:10248000DFE803F002696D493A4BDC6A14F002049C
:1024900069D1DA6A002A18DBDB6A5B004ED5AB69CA
:1024A00033F8022C4DF602739A420DD003F16043CB
:1024B00003F626631B780BB30DF1070201212846B2
:1024C000FFF72CFF044600E02C689DF807309BB90D
:1024D0002022294602A806F0ACFD099B002E44D01C
:1024E000C3F3080222B96FEA53236FEA4323099327
:1024F00002A9204606F063FD0AB070BD224B1B788E
:102500002BB10DF107010120FFF75AFFDAE71F4B4E
:102510001B889BB213B1FFF771FFD3E71C49164A22
:10252000174840F2C32306F02EFD1A4806F02BFD93
:1025300040F2C321104806F037FBC6E714490E4AA3
:102540000F4840F2C72306F01EFD134806F01BFD9E
:1025500040F2C721EEE70DF107020021AFE70DF1D0
:1025600007010020D0E70024AFE723F4FF7323F036
:102570000103BCE700ED00E048A30000EFA300006A
:102580004C9F000002A4000029ED00E02AED00E0CD
:10259000E2A8000040A4000064A40000024A5369BD
:1025A00043F010035361704700ED00E0044800233E
:1025B0002021C2180133302B82F80013F9D1704763
:1025C00000E100E0064A11680023C1F30721184624
:1025D0008B4200D17047936010610133F8E700BF70
:1025E00090ED00E008B572B6002383F31388FFF77F
:1025F000E9FF144B4FF0FF32C3F88020C3F884206A
:10260000C3F88820C3F88C20C3F89020C3F8942026
:10261000C3F89820C3F89C20C3F88021C3F8842114
:10262000C3F88821C3F88C21C3F89021C3F8942102
:10263000C3F89821C3F89C2162B6BFF34F8FBFF354
:102640006F8F08BD00E100E0064B9B68834207D115
:10265000EFF3058323B1044A536843F0805353607A
:1026600004F02ABDB00C002000ED00E0024B034A4C
:102670000348012100F068B8000004200000002099
:10268000049B0000826E054B203A1A60044A202108
:10269000C3E901121846012100F07EB8400B00206A
:1026A00000000B15F0B51E4F00268E4201DB1046D0
:1026B000F0BD446884B353B104F1FF3C14EA0C0F3D
:1026C00018D11F2C16D905681CEA050F12D1202C31
:1026D0000568D0F808C0D2B20FD9B4F1004F0ED8B7
:1026E000013CB4FA84F4C4F11F046400072A4CEAE4
:1026F000040406D96FF01502D9E70824F6E73E2452
:10270000F4E725F01F05154345F0100544F00104DA
:10271000BA60FD6001323C6101360C30C5E700BF94
:1027200090ED00E0034B05225A60BFF34F8FBFF3DB
:102730006F8F704790ED00E0BFF35F8F014B002279
:102740005A60704790ED00E038B50E4D01232A78AD
:102750000C46FFF7A7FF2870163011D140F2111375
:10276000094A0A490A4806F00EFC2146094806F0C3
:102770000AFCBDE83840044840F2111106F014BAD2
:1027800038BD00BF260D002094A40000E2A8000080
:102790004C9F0000CBA4000010B5124A0023127811
:1027A0000C46FFF77FFF10F1160F08D00E4B0022EA
:1027B000072800DD10BD98601A610130F8E70B4A68
:1027C0000B490C484FF4987306F0DDFB21460A488C
:1027D00006F0D9FBBDE8104004484FF4987106F0AC
:1027E000E3B900BF260D002090ED00E094A40000A6
:1027F000E2A800004C9F0000F7A40000254910B596
:102800000C68082C13D94FF4A473234A2349244895
:1028100006F0B9FB23480822214606F0B4FB1E4807
:102820004FF4A47106F0C0F94FF0FF3010BDFFF770
:1028300083FF48681C490022944200F10C0019D122
:102840001A4B1C70FFF76EFF0B68C3F30723082BAE
:102850000ED01749104A12484FF4D47306F093FB78
:10286000144806F090FB0C484FF4D47106F09CF924
:102870000020DBE78A6050F80C3C23F01F03134371
:1028800043F01003CB6050F8043C43F001030B61AC
:102890000132D1E7109B000094A40000E2A80000E0
:1028A0004C9F000024A5000090ED00E0260D0020C4
:1028B00058A50000A8A50000014B1860704700BF94
:1028C000D40000204FF02003EFF3118183F312882E
:1028D000BFF36F8F0F4A0123C2F840354FF080429B
:1028E000C2F878350C4A1268082A08D10B4A1268D7
:1028F000052A04D80A48825C0AB10A4A13604FF0DC
:1029000080430122C3F8802581F31188BFF36F8FC4
:102910000020704700E00140300100103401001039
:10292000D8A50000380600404FF08043C0B2C3F87D
:102930001C05BFF34F8F0549054BCA6802F4E062DE
:102940001343CB60BFF34F8F00BFFDE700ED00E006
:102950000400FA0520B1034B800143F0010318473E
:10296000704700BFD09A0000054A0123C2F8003525
:1029700008B1D36070471360024A1360704700BF0C
:102980000070004004700040087970B500F01F042A
:10299000072C1FD80B78092B1CD8DFE803F006069C
:1029A0000606061B051E1B2005234A78032A18D09D
:1029B000042A0FD100254A8844F20A06B24244D0C4
:1029C00011D844F20306B2423BD044F20506B242AB
:1029D00039D0D2B36FF0150032E00623E5E70723C4
:1029E000E3E70125E7E744F21406B2422FD044F2B0
:1029F0002806B2422DD044F20F06B242EAD1032299
:102A0000C0F340101B0243EA005343EA053343EA94
:102A10000243220102F1804202F5E0420020C2F8A6
:102A20001835230103F1804303F5E0438A79C3F8A5
:102A30001425C3F81005084B1C444B7984F8A830C2
:102A400070BD0022DCE70122DAE70222D8E7042287
:102A5000D6E70522D4E700BF00000020F7B5054601
:102A6000406810B96FF015009CE030F0FF02F9D11A
:102A7000574C584F114620FA02F313F0010333D09C
:102A8000BB1893F8A8C0BCF1000FEBD004EB021EFA
:102A90006E7CDEF81835003E18BF012623F08073E7
:102AA00043EA0663CEF8183502F151031B010131E8
:102AB00044F803C0C9B20132082ADCD12B7C083BA0
:102AC000062BCFD801A252F823F000BFB12B000093
:102AD000652A0000F32A0000652A0000A92B0000E7
:102AE000652A0000AD2B000002F151063601A3510A
:102AF000E1E70122364B0129C3F8F0256A7C59D958
:102B0000002AAFD1C3F8F4252A684B0012B192898C
:102B100002FB0333EA689A4256D32D4BAA68C3F8E6
:102B20002C262F46C3F830160FCF2A4C04F17C0612
:102B30000FC63B6833602B6800262667002B3CD00D
:102B40000FCB04F1900585E80F00E567A4F8A060BD
:102B500098B3BFF35B8F54E8003F44E80062002A5B
:102B6000F9D1BFF35B8F1C48D4F890601B4A4FF437
:102B7000004500210023E5FB0601FDF7A3FC002230
:102B8000CDE90001002304F1080005F0DDF994F817
:102B90007830BBB912484FF0FF324FF0FF3304F0EA
:102BA000EDFB206F03B0F0BD0222A3E70322A1E7F3
:102BB00000229FE7082AA5D954E794F88E00FFF772
:102BC000D3FEE4E70020EDE76FF00B00EAE700BF7B
:102BD00000700040000000203F420F0040420F0004
:102BE0005800002070B50C4616460D4D4FF0FF32D0
:102BF0004FF0FF3305F1400004F0C0FB01232046F5
:102C000085F878306E67FFF729FF95F8783004462D
:102C100003B110B1034804F06DFB204670BD00BF46
:102C200000000020400000200D4B10B500241C6067
:102C30001B680C4B1C601B680B4B1222C3F804234F
:102C40000720FFF755FA224601210720FFF76EFA09
:102C50000648836C13B9403004F04CFB002010BDD3
:102C6000047100401071004000700040000000201E
:102C7000344B1A6810B5002A55D000221A601B6820
:102C8000314C324B01211960C3F8F824E36FDBB3F8
:102C9000D4F8943043B1B4F8A02004F17C019847F3
:102CA000012814D0022829D0B4F8A030B4F89C2010
:102CB0009A4223D90133A4F8A030254BD3F82C260F
:102CC000D3F8341689B202EB4102C3F82C26D4F8AB
:102CD00090302BB994F88E00BDE81040FFF744BE49
:102CE000BFF35B8F54E8003F5A1E44E800210029DF
:102CF000F8D1BFF35B8F012BECDC10BDD4F8903022
:102D000013B1144806F03BFD94F878304BB1606F76
:102D100010B1002102F05EFF0F48BDE8104004F042
:102D2000E9BA0E48F9E70E4B19680029E5D01A6098
:102D3000064A1B680123136042F8083C42F8043C31
:102D4000DBE700BF04710040000000200870004075
:102D500000700040080000204000002058000020C3
:102D60001071004038B50C460C4D4FF0FF324FF05B
:102D7000FF3305F1400004F001FB0023204685F8F5
:102D800078306B67FFF76AFE95F87830044603B138
:102D900010B1034804F0AEFA204638BD0000002010
:102DA000400000202DE9F041104C071BC7F34717E6
:102DB0004FF00C0808FB07F8064608F148000D46DE
:102DC0002044402106F07EF9011E09DB084B4444F3
:102DD000C4E91035074B53F83730BDE8F0411847C8
:102DE00030462B46BDE8F041184700BF5C0B002081
:102DF00027910000589B000038B5CCB2012C054645
:102E000009D9094909480A4A792306F0BCF8084853
:102E1000792105F0C9FE2B690C2104FB0134A06C5B
:102E200000F0070038BD00BF1BA600004C9F00004B
:102E3000DEA50000F8B5CCB2012C076905461646A0
:102E40000BD918491848194A40F24D1306F09BF85F
:102E5000164840F24D1105F0A7FE4FF02003EFF3A6
:102E6000118283F31288BFF36F8F0C2303FB04716D
:102E7000896C11F0C00101D08E4210D103FB0473A4
:102E800001219964002082F31188BFF36F8F28B964
:102E9000696801EBC404636898470020F8BD4FF0EF
:102EA000FF30F0E71BA600004C9F0000DEA50000ED
:102EB00070B50D460649411A04464911054840229D
:102EC000FFF7B8FF2B4601462046BDE87040184783
:102ED0005C0B002074980000002270B501210446AC
:102EE0001046FFF723F90020FFF702F90F4801F021
:102EF000C3F80F4B984215D101F0E2F826690D494D
:102F0000304606F02BF800280BDB0125B564246958
:102F1000084904F1200006F021F8002801DB65656E
:102F2000002070BD6FF00400FBE700BF6D2F0000B4
:102F30000000AD0B689B000001460C2309484B4381
:102F400070B5C418D4E910560022483322641844DE
:102F500006F0D6F82DB132462B460348BDE8704046
:102F6000184770BD5C0B002074980000012808B55C
:102F700006D0032808D0A8B9104B9B6C5B071BD167
:102F8000BDE80840FFF7D8BF0D490E4A0E4840F291
:102F90005E2305F0F8FF40F25E21BDE808400948D5
:102FA00005F002BE0649074A074840F2622305F0D1
:102FB000EAFF40F26221F0E708BD00BF5C0B002091
:102FC000E2A80000DEA500004C9F000008B54FF00D
:102FD0002003EFF3118183F31288BFF36F8F124A3E
:102FE000136843F0020013F0010310600CD04FF09F
:102FF0008042D2F80C34D2F80C2413F0010303D031
:103000000A4806F07DF8012381F31188BFF36F8F22
:1030100023B1BDE808400020FFF78EBFBDE808409F
:10302000012001F06DB800BFB40B0020A40B0020FC
:10303000094BBFF35B8F53E8002F22F0020143E8F6
:1030400000100028F7D1BFF35B8FD30702D4012013
:1030500001F0AAB8704700BFB40B00207FB5002272
:103060000123CDE9022304ABCDE90433094ACDF8AD
:1030700000D06B46CDF804D006F067F8002805DBD9
:103080004FF480420023684604F078F907B05DF8F9
:1030900004FB00BF459100002DE9F8434949BFF307
:1030A0005B8F0546012251E8003F41E800200028DF
:1030B000F9D1BFF35B8FA3B9434944484B60CB6060
:1030C0008A60FEF78BFD00280BDA41494148424AED
:1030D0004FF4087305F057FF3F484FF4087105F0AF
:1030E00063FDADB36B1E012B56D8012D07D14FF0F8
:1030F0008043D3F81C3403F00303012B28D006F0DF
:1031000000FB044618B9354B1B78002B52D14FF009
:103110002003EFF3118683F31288BFF36F8F01242E
:103120002F4FDFF8C480DFF8C4904FF08042D2F810
:103130001834D2F81824D2030CD503F00303012B62
:1031400001D0012D06D10CB386F31188BFF36F8F28
:10315000BDE8F883ACB13046FEF762FF4FF0804225
:10316000D2F81835002BE0D139680029DDD03B605A
:103170003B680123C2F81835C8F88031C9F800301F
:10318000D3E70021212003F049FFE7E74FF0804318
:103190000222C3F80423DBE712490E480E4A40F22C
:1031A000322305F0F0FEBDE8F8430B4840F232212F
:1031B00005F0FABC4FF080430222C3F8082306460C
:1031C000AEE700BFB80B00204C0B00207C0B0020AA
:1031D0003FA600004C9F0000DEA500003711002034
:1031E00004010040E2A8000000E100E00800004007
:1031F00008B5084B0848186006F0EDF938B10748E3
:10320000FFF75AFB0548FEF7CFFE002008BD6FF020
:103210001200FBE7BC0B0020D49800002132000014
:103220000A2838B5074D044604D1286883680D2163
:103230005B68984728688368E1B25B6898472046D6
:1032400038BD00BFBC0B002070B5056916460C46A2
:1032500061B92249224A2348242305F094FE2248DA
:1032600005F091FE1E48242105F09EFC636863B9B9
:103270001E491B4A1B48252305F085FE1C4805F006
:1032800082FE1748252105F08FFC6B685BB1002298
:103290009C4213D123685AB9AA686B60944200D14A
:1032A000AB600023236076B9002070BD0B46EFE7CA
:1032B0001360AB689C4208BFAA60F2E719681A461F
:1032C0000029F3D13EB16B682360A8686C600028C8
:1032D000EAD1AC60E9E76FF01500E6E77BA60000F5
:1032E0004EA600004C9F000084A6000093A600009C
:1032F000A5A6000043092DE9F04703D0012B36D0E5
:10330000BDE8F0871B4F3B695C68002CF8D025684E
:10331000DFF86C80DFF86C90DFF86CA000F01F0025
:103320000126002D06FA00F638BF0025A3681E42CC
:1033300014D0636863B9494645234246504605F0B8
:1033400022FE0D4805F01FFE4521404605F02CFCED
:10335000D4E901322146324038469847002DCFD07B
:103360002B68002B38BF00232C461D46DEE7034F99
:10337000C9E700BF8C980000A5A60000A498000033
:103380004EA60000BCA600004C9F00007FB5406820
:10339000057B01F01F04B2F5005F44EA45144FF0CD
:1033A000000504D1204601F097FA002054E0B2F560
:1033B000804FCDE9025551D1B3F5003F0CBF042336
:1033C00005238DF80830836823FA01F111F001011B
:1033D00055D1B2F5A03F52D166094AD04FF6FF73DE
:1033E000012E08BF194604F01F05E940CA070BD497
:1033F0002B492C482C4A40F2292305F0C4FD2A48C9
:1034000040F2292105F0D0FB6EB1012E34D02749BE
:103410002448254A40F22E2305F0B5FD224840F20B
:103420002E2105F0C1FB4FF0A04305F5E07553F8E0
:103430002530DB0723D40DF107052946204601F08E
:1034400075F91B4B984219D1284601F0CFF9194B59
:10345000984213D06FF00B0004B070BDB3F5C02FCD
:1034600005D0B3F5003F0CBF02230123A9E70323D6
:10347000A7E74FF0FF31B6E70F4BD6E703950023E0
:10348000194602AA204601F033F80A4B984204D1AB
:103490000121204601F0B0F987E76FF00400DBE777
:1034A000FBA600004C9F0000C8A60000E2A8000098
:1034B0000400AD0B0000AD0B0003005010B501F08F
:1034C00085F9044668B901F059F9084B98420AD1C8
:1034D0000748214601F024F9224605210620FEF77F
:1034E00025FE002010BD6FF00400FBE70000AD0BCF
:1034F000F53200002DE9F04347683B7B01F01F05E2
:1035000085B00E4645EA43151446CAB902A92846B5
:1035100001F00CF90446284601F000FA484B9842A5
:1035200004D06FF0040005B0BDE8F083844205D1FB
:103530009DF8080001F054F9A042F2D10020F2E712
:103540004FF000090DF103013046CDE9029901F079
:10355000EDF84B46804602AA4946284600F0C8FFCF
:10356000374B984202D06FF01500DCE7804503D15D
:103570009DF8030001F034F9A3054ED5314B324AD2
:10358000234093423AD00CD8062B14D004D893B1E0
:10359000022BE8D104230EE0B3F5801FE3D1012311
:1035A00009E02A4A93422BD0B3F5A00F2AD0B3F5F5
:1035B000800FD8D102238DF8043084F48073C3F3D4
:1035C0000023E0068DF8053054BFC4F340130323F5
:1035D00021058DF8063017D57B68012101FA06F622
:1035E000C3F80865002201A9284601F029F8144B08
:1035F000984214BF6FF01500002094E70723DAE724
:103600000523D8E70323D6E7620541BF7B68012184
:1036100001FA06F6C3F80C65E4E7E3064FF0000391
:1036200054BFC4F3401403241A4601A928468DF858
:10363000044000F05DFF024B98423FF47FAF92E7F9
:103640000000AD0B0600F000060010000200400074
:1036500002480021C2E90001002070470024F40064
:1036600002464068126938B500F10803043200F1DF
:103670000C04194613F9015B002DB4BF00254FF46B
:103680000045A34222F8025BF4D100231A4601F060
:1036900007FB034B984214BF6FF00F00002038BDAA
:1036A0000000AD0B0268530910B504462CD0012B65
:1036B0004FF6FF7318BF002302F01F02D340DB0751
:1036C0000BD414491448154A40F2292305F05BFC39
:1036D000124840F2292105F067FA236803F01F021F
:1036E0005B0922600DD0012B11D00D490A480B4A0D
:1036F00040F22E2305F047FC084840F22E2105F049
:1037000053FA4FF0A04010BD4FF0FF33D4E7054807
:10371000F9E700BFFBA600004C9F0000C8A6000010
:10372000E2A8000000030050F0B54B79012B26D031
:10373000032B21D110268B79032B1DD1CC790CB111
:10374000012C19D10A7912B1022A15D10E220B6867
:103750004568B3F5164F2D6865D02DD8B3F5165FC3
:1037600064D016D8B3F5966F62D00AD8B3F5967FB9
:1037700061D0B3F5167F61D06FF0850052E000266E
:10378000D9E7B3F5166F5CD0B3F5965FF4D1374B3C
:103790003CE0B3F5E14F57D007D8B3F5615F55D0A2
:1037A000B3F5964FE8D1324B30E047F61227BB42D3
:1037B000E2D14FF4000329E0B3F5613F48D013D8BC
:1037C000B3F5963F47D009D84DF6C027BB4244D049
:1037D000B3F5614FD0D14FF46B0317E0B3F5E13F80
:1037E000CAD14FF0EB7311E0B3F5612F38D008D890
:1037F000204FBB4237D0B3F5E12FBDD14FF0E86386
:1038000004E01D4FBB42B7D14FF08053C5F82435BB
:10381000036903C9344322430433C5F86C2583E8A4
:1038200003000020F0BD4FF41D03EFE7134BEDE75D
:103830004FF49E23EAE74FF4A033E7E74FF41C333D
:10384000E4E74FF41D23E1E70D4BDFE70D4BDDE728
:103850004FF06C73DAE70C4BD8E74FF46503D5E70C
:103860004FF07063D2E74FF08063CFE700B01300F2
:1038700000A04E0090D0030040420F0000502700EF
:1038800000C0750000F03A0000903A010268530948
:1038900010B504462CD0012B4FF6FF7318BF002340
:1038A00002F01F02D340DB070BD414491448154A19
:1038B00040F2292305F067FB124840F2292105F068
:1038C00073F9236803F01F025B0922600DD0012BFE
:1038D00011D00D490A480B4A40F22E2305F053FB44
:1038E000084840F22E2105F05FF94FF0A04010BDCE
:1038F0004FF0FF33D4E70548F9E700BFFBA600000F
:103900004C9F0000C8A60000E2A800000003005081
:10391000F8B5066905460F4605F0F3FE10B92C4BC5
:103920001B7883B94FF02003EFF3118483F31288DF
:10393000BFF36F8F284605F060FD28BB84F3118824
:10394000BFF36F8FEEE76424284605F056FD70B98B
:10395000012005F0A4FD013CF6D10021212003F057
:103960005DFBF0E784F31188BFF36F8FF5E74FF04D
:103970002003EFF3118483F31288BFF36F8F28467F
:1039800005F03BFD0028EDD006F8107F69680B6854
:103990000122C3F84465C3F848250022C3F820215A
:1039A000D3F82001C3F85821D3F858214A68D20629
:1039B00041BF0822C3F800254FF48002C3F8042356
:1039C00001229A6084F31188BFF36F8FF8BD00BFA6
:1039D000371100202DE9F743D0F804800769D8F8A3
:1039E00000400023C4F8003538604568EB6806469F
:1039F000581C13D001A80193FFF748FF019A012337
:103A00009340C0F80835EB68019301A8FFF73EFF2B
:103A1000019B03F5E073032240F823202B69591C16
:103A200011D02A7F0193002A01A814BF4FF0030987
:103A30004FF00009FFF72AFF019B03F5E0734FEAFF
:103A4000890240F823206B695A1C13D001A8019306
:103A5000FFF71CFF019A01239340C0F808356B69FA
:103A6000019301A8FFF712FF019B03F5E073032206
:103A700040F82320AB69581C11D06A7F0193002ABB
:103A800001A814BF4FF003094FF00009FFF7FEFE35
:103A9000019B03F5E0734FEA890240F82320D5E942
:103AA00003122B68C3F80C15C3F81425D5E90512C9
:103AB000C3F808153169C3F8102504313046FFF703
:103AC00033FE0546002846D1D8F80430990719D5A9
:103AD00007F1120001F020F8224B98423FD1B87C48
:103AE000C30003F1804303F5F83304F10C0204F53D
:103AF0009071C3F81015C3F814251B4A01238340A5
:103B0000C2F804350823C4F8003598F808305BB9CA
:103B1000C4F81031D4F8103107F11103C4F834356A
:103B20000123C4F838352360D8F804309A075CBF05
:103B30004FF48072C4F80423DB0644BF4FF48003C3
:103B4000C4F8043310370023C4F84475C4F848356A
:103B50000123A360E360284603B0BDE8F0836FF063
:103B60000405F8E70000AD0B00F00140194970B5FD
:103B7000044622F07F460868C1E90023A6F5001339
:103B8000101AB3F5400F4FF000050AD2124B196816
:103B90000A060B0A9219114943F10003C1E90023F7
:103BA000012504F001F8A30003F1804303F58833F5
:103BB000D3F84025B2420BD11DB94FF40002C3F82F
:103BC0004025074B4FF4803000FA04F4C3F8444317
:103BD00070BD00BF08040020F00B0020F00300209F
:103BE0000010014010B501238340114ABFF35B8FE1
:103BF000DC4352E8001F01EA040C42E800CEBEF1AB
:103C0000000FF6D1BFF35B8F4FF4803202FA00F061
:103C100002F1804202F58052C2F80803BFF35F8FC1
:103C2000BFF36F8F0B4214BF0120002010BD00BFF7
:103C3000EC0B00200123124ABFF35B8F834052E854
:103C4000001F194342E8001CBCF1000FF7D1BFF37D
:103C50005B8F0C4A4FF480338340C2F804330A4B25
:103C6000BFF35B8F1B68BFF35B8F23FA00F0C307C2
:103C700042BF064B4FF40032C3F80021704700BF2B
:103C8000EC0B002000100140E80B002000E100E0F8
:103C90000D4B1B68190A1806BFF35F8F0B4BD3F847
:103CA0000435C01841F10001B3F5801F0AD2084B5A
:103CB000D3E90023994208BF904203D210F18070EB
:103CC00041F10001704700BFF00B002000100140DF
:103CD000F00300202DE9F04F85B016461F4605463B
:103CE000FFF780FF0190FFF7D3FFB94208BFB04252
:103CF0007FD2B6EB000867EB010900234FF080721A
:103D00004B4508BF4245C0F08580444B03EB05138B
:103D1000D3E902239F4208BF964254D04FEA850957
:103D20004FF4803B09F1804905F150080BFA05F288
:103D300009F588394FEA88081FFA88F80292384A4C
:103D4000D9F8400526F07F4308F1804808F5883807
:103D50001C469346D2F804A5A0EB0A0020F07F4051
:103D60002AF07F410128C9F8401505D1039313209B
:103D700005F0D8FC2A4A039B02990AF1020CA4EB35
:103D80000C0020F07F40B0F5000F88BF6446002093
:103D9000C8F80000D8F80000CBF8441324F07F40A6
:103DA000C9F84005DBF80405824506D0201A023820
:103DB00020F07F40B0F5000F19D8E41A24F07F44BA
:103DC000321947F10003154C290104EB0510C0E935
:103DD00002230E9A0F9B625043600024019B13B193
:103DE0002846FFF727FF204605B0BDE8F08F2046A4
:103DF000B0E701230B4ABFF35B8FAB4052E8001FD3
:103E0000194342E800100028F8D1BFF35B8F324617
:103E10003B46D8E76FF01504E0E700BFF803002049
:103E200000100140E80B002073B5194B194D002418
:103E30004FF0FF304FF0FF31C5F80845C3E90201EC
:103E40004FF48033C5F80433134B02264FF400328D
:103E50000121C5F804631120C3F880212246FEF732
:103E600065F91120FEF744F90C4A012313600C4A4E
:103E70002B6013600B4B0C4A0093019400232046E7
:103E8000FFF728FF3046FFF707F9204602B070BD64
:103E9000F80300200010014000E100E0081001409C
:103EA000EC0B00206D3B0000FFFF7F002DE9F74386
:103EB000344CD4F804339A0709D5334B1A6832B11D
:103EC00000221A60314A1B681368013313604FF0F7
:103ED0002003EFF3118283F31288BFF36F8FD4F8BE
:103EE0000433DB0312D5BFF35B8F294B53E8001F6C
:103EF00021F0010043E80006002EF7D1BFF35B8FED
:103F0000244B002936D11968002933D1002382F3CC
:103F10001188BFF36F8F53B3FFF7BAFE06464FF019
:103F20002003EFF3118083F31288BFF36F8F1A4BD6
:103F3000D3E90289494508BF46454FF000021ED328
:103F40004FF0FF364FF0FF37D3E90015C3E90267A2
:103F50001A604FF48033C4F8483380F31188BFF3FC
:103F60006F8F21B1009542464B460020884703B031
:103F7000BDE8F083002119601B680123C7E71146E3
:103F8000EBE700BF0010014004110140F00B0020DE
:103F9000E80B002040110140F8030020144B13B53A
:103FA000B0F1FF3F08BF1846441E002C1EDD9C42A6
:103FB000A8BF1C46FFF76CFE0E4B0F49D3E9002348
:103FC000801AB0F5000F28BF0024013004440848CF
:103FD0000091844228BF044612194FF0000001905E
:103FE00043F10003FFF776FE02B010BD0024E1E7C5
:103FF000FFFF7F00080400206D3B000008B5FFF7BD
:1040000047FE024B1B68C01A08BD00BF0804002011
:1040100008B578B101281CD0144A154915484FF449
:104020004F7304F0B0FF11484FF44F7104F0BCFD22
:1040300000200DE031B14FF08043D3F8183403F085
:1040400003030B604FF08043D3F81804C0F3004023
:1040500008BD31B14FF08043D3F80C3403F00103B5
:104060000B704FF08043D3F80C04EFE73AA7000041
:10407000E2A800004C9F000010B5044648B90A4968
:104080000A480B4ABD2304F07EFF0948BD2104F015
:104090008BFD084B1A7922B9012207481C609A80CF
:1040A00010BD0648FCE700BFABA700004C9F000016
:1040B0006EA70000F40B00200000AD0B0C00AD0B50
:1040C00008B50B4B1B794BB90A490B480B4AD62351
:1040D00004F059FF0948D62104F066FD0020FEF7E0
:1040E00017F818B9BDE80840FEF702B808BD00BFD0
:1040F000F40B0020B9A700004C9F00006EA7000041
:10410000224B1B7913B504465BB921492148224A49
:104110004FF4897304F037FF1F484FF4897104F09E
:1041200043FD74B1012C27D01B4A1C4919484FF498
:10413000A27304F028FF18484FF4A27104F034FD74
:1041400016E001A92046FFF763FF4FF0804388B1D6
:10415000019A012A0ED1C3F81825114B00221A60CA
:104160001B684FF080430222C3F8042301229A60A7
:1041700002B010BD0022EEE70A4B00221A601B6855
:104180004FF08043C3F804431C60F1E7F40B0020B8
:10419000B9A700004C9F00006EA70000E2A8000035
:1041A000040100400001004037B52F4D2A79044634
:1041B0005AB92E492E482F4A40F24B1304F0E3FE21
:1041C0002C4840F24B1104F0EFFC7CB1012C28D0BC
:1041D00029492748274A40F2671304F0D4FE2548AE
:1041E00040F2671104F0E0FC03B030BD4FF08043B3
:1041F0000222C3F80823C3F8044103F582730122A5
:104200001B681E4B42F210741A6000210846FFF72B
:10421000FFFE0028E8D0012005F041F9013CF4D16F
:10422000E2E74FF080430022C3F80843C3F80021BF
:1042300003F580731B68124B1C608DF8074042F237
:1042400010740DF107010120FFF7E2FE10B9002301
:104250006B71C9E79DF807000128F8D105F01FF937
:10426000013CEED1F3E700BFF40B0020B9A700003A
:104270004C9F00006EA70000E2A800000C00004068
:1042800004000040164B07B51A686AB100221A6094
:104290001B684FF080430122C3F80823114B587963
:1042A00010B95A711B6898470F4B1A686AB1002001
:1042B000186001A91B68FFF7ABFE019A4FF080431D
:1042C00032B90122C3F818259A6003B05DF804FBE7
:1042D0000222C3F80823034B01201B689847F4E728
:1042E00000010040F40B00200401004070B50125DE
:1042F0000368B3FA83F2202AC2F11F0414D0BFF37B
:104300005B8F05FA04F223EA020250E8006F9E4236
:1043100004D140E8002CBCF1000FF6D1BFF35B8F55
:10432000E6D102480C7070BD0148FCE70000AD0BFF
:104330000200AD0B0368CB40DB0710B515D4012399
:1043400003FA01F10368BFF35B8F41EA030250E80F
:10435000004F9C4204D140E8002CBCF1000FF6D184
:10436000BFF35B8FEED1024810BD0248FCE700BFEF
:104370000000AD0B0400AD0B054B083033F8100006
:1043800000F02200A0F1220358425841704700BFBC
:104390000001002070B500F108030C4C34F8133014
:1043A000DA0505460E4607D5C3F3432304EBC302E3
:1043B00054F8333052689847A3682BB1E26831460D
:1043C0002846BDE87040184770BD00BF00010020BE
:1043D000194B083010B533F81020D1051DD5C2F3A4
:1043E000432122F4F85223F8102003F11004002096
:1043F00034F8022B12F4807F03D0C2F3432291429F
:104400000BD001303028F3D1002243F831200B4883
:10441000FFF790FF0A4B984200D110BD09490A48A6
:104420000A4A4FF4997304F0AEFDBDE81040074806
:104430004FF4997104F0B8BB000100207401002012
:104440000000AD0B3BA800004C9F0000D7A7000068
:1044500038B50A4C00F1080534F815309A0606D52F
:104460005B0B074A03F5A273002142F82310FFF704
:10447000AFFF002324F8153038BD00BF0001002035
:104480000060004010B50446006805F00AF858B90D
:1044900012491348134A40F2292304F074FD1148CD
:1044A00040F2292104F080FB236803F01F025B091E
:1044B00022600DD0012B0ED00B490948094A40F269
:1044C0002E2304F060FD074840F22E2104F06CFB1F
:1044D0004FF0A04010BD0548FCE700BFFBA6000060
:1044E0004C9F0000C8A60000E2A800000003005096
:1044F000F0B5044685B017461D46F1B1FFF73CFF05
:1045000010B14A4805B0F0BD0B46CDE900008DF86A
:104510000E008DF80F000DF10F020DF10E01204677
:1045200004F0D4FF424A04F1080132F8113023F0BC
:10453000020343F0010322F8113097B13C4B3E785F
:104540007A6804F1080033F810108F070CD5002AA0
:10455000D7D133F8102022F01C0242EA860223F859
:104560001020CDBB3348CDE721F02001C904C90C90
:1045700023F81010002AECD0032EC2D817782EB9D9
:104580002D4A07F5A27142F82160E2E7BA0002F174
:10459000804202F5C04241EA4731D2F810C52CF002
:1045A000030CC2F810C5D2F810C52CF44F3C2CF403
:1045B000407CC2F810C5D2F810E54FEA042C0CF488
:1045C0007C5C4EEA064E4CEA0E0C41F0200123F8CA
:1045D0001010C2F810C5BCE7D5E900672046FFF708
:1045E000F7FE002EBED0124D2B689E4204D16B68A0
:1045F0009F4201D100220AE010480DF10F01FFF7A0
:1046000075FE0C4B98427FF47DAF9DF80F2045F866
:10461000326005EBC20308345F6035F8143043EABA
:10462000422343F4807325F814309BE70400AD0B5C
:10463000000100200000AD0B00600040740100206C
:10464000F0B5044685B0154609B300F10807314EB0
:1046500036F81730980701D49A0658D413F01C0F77
:1046600002D04B78012B52D001238DF80F3000235C
:10467000CDE900134A1C8B1C20460DF10F0104F0FC
:1046800025FF36F8173043F0030326F8173015B925
:10469000214805B0F0BD1F4E04F1080736F8170099
:1046A000830734D595F800C06146890020F02000CA
:1046B00001F18041C00401F5C041C00C26F817008B
:1046C0000023C1F810356A78002AE1D0D1F81035FE
:1046D000AD7823F4991323F4F853C1F81035D1F8C9
:1046E00010E5230203F47C53120443EA0E0302F4A0
:1046F00040322D05134305F4801540EA4C302B431E
:1047000040F0200026F81700C1F81035C0E7034834
:10471000BFE700BF000100200000AD0B0400AD0B9F
:10472000014BC3E9020170470001002038B504467F
:104730000D4659B90B490C480C4A40F2352304F098
:1047400022FC0A4840F2352104F02EFA0834084BC6
:1047500033F814309A0643BF5B0B2B7005480648AC
:1047600038BD00BF4FA800004C9F0000D7A7000035
:10477000000100200000AD0B0400AD0B38B50E4C5D
:1047800094F87850B5B96022294604F1100004F07D
:104790005BFC0620FDF7ACFC084B09481D601B685C
:1047A000084B4FF00042C3F80423012384F878300B
:1047B000636738BD0448FCE7000100207C610040CD
:1047C0000000AD0B006000400500AD0B034B93F8FB
:1047D0007800003818BF0120704700BF000100209A
:1047E00001460148FFF7A6BD7001002001460148BF
:1047F000FFF77CBD70010020F7B5314D00F10807CF
:10480000044635F8173013F01C0F0E460BD12D4916
:104810002D482E4A40F2DF3304F0B5FB2B4840F21E
:10482000DF3104F0C1F935F8170083061FD510F009
:1048300002031CD1410B084604F044FE00F1804005
:1048400000F5C040036003688B0003F1804303F56B
:10485000C043D3F8102542F00102C3F8102526B159
:104860001B4A01238B40C2F8043303B0F0BD5EB98C
:1048700018491548154A40F2EE3304F084FB1348FA
:1048800040F2EE3104F090F935F81730C3F38203AB
:10489000042B10D0052B10D001A80194FFF7F2FDD6
:1048A000019BD0F81015D94001F0010102312046DA
:1048B00004F057FED9E70321F9E70221F7E700BF2B
:1048C0000001002059A800004C9F0000D7A700005D
:1048D000006000406EA800000E4B00F1080233F8A3
:1048E0001230990613D59A0711D45B0B01229A4016
:1048F0009B00094903F1804303F5C043C1F8082335
:10490000D3F8102522F00302C3F8102570470021C8
:1049100004F027BE00010020006000400E4B00F1B3
:10492000080213B513F81230DB07044611D5FFF760
:10493000D3FF2046FFF78CFD01A80194FFF7A2FDED
:10494000019B03F5E073022240F82320034802B0E4
:1049500010BD0348FBE700BF000100200000AD0BC5
:104960000400AD0B2DE9F04F654B66486649002504
:1049700089B001222C461E6836B1D0F80463164275
:104980001EBF1C601E68154304338B424FEA42026F
:10499000F1D15E4F3B687BB34FF0A0435C4ED3F840
:1049A00020250692C3F82025D6F820350793C6F8AF
:1049B000203501960DF118094FF000084FF0010B5A
:1049C000D9F80030F3B908F12008B8F1400F09F127
:1049D0000409F5D13B603B6801994FF0A043D3F83F
:1049E00020250692C3F82025019BD3F82035079394
:1049F000C1F820351343DDD10124002D68D109B061
:104A0000BDE8F08F93FAA3F3B3FA83F308EB030640
:104A100006F108023F4B059633F81220C2F38203D9
:104A2000F40802939A4606AB06F007000BFA00FC66
:104A3000185D20EA0C001855910805A80391FFF7AE
:104A400021FD059C039904F5E0744B0750F82440C0
:104A5000C4F3014423D551463046FFF79BFC05A81B
:104A60000596FFF70FFD059A02F5E072E4B250F8E3
:104A70002220C2F30142944207D10021304604F0C3
:104A800070FD2146304604F06CFD05A80596FFF741
:104A9000F9FC059B0BFA03F3C0F8203590E7022CD4
:104AA0000CBF03210221304604F05BFD029B032B67
:104AB00004D0022C07D1BAF1010FE6D1514630469D
:104AC000FFF768FCE1E7032CDFD1BAF1020FF4E74E
:104AD00095FAA5F3B3FA83F304FA03F29B0003F10A
:104AE000804303F5C04325EA0205D3F81005D3F847
:104AF0001015C0F30520C1F30141FFF74BFC7CE723
:104B00000061004000600040206100407C61004086
:104B1000000300500001002001460148FFF7E6BBFA
:104B20007C0100202DE9F04104460E4615465AB995
:104B300032493348334A40F2A72304F024FA31487B
:104B400040F2A72104F030F82F685FB92E492C48B5
:104B50002C4A4FF42D7304F016FA2A484FF42D71A5
:104B600004F022F804EB4618C8F82075AF88002F2F
:104B700038D12649234A224840F2BD2304F003FAE3
:104B800040F2BD211F4804F00FF8C8F82475AF6843
:104B9000B7F1807F0BD31E4919481A4A40F2C72348
:104BA00004F0F1F9174840F2C72103F0FDFFED686A
:104BB0004FEA461804EB4616B5F1807FC6F8287513
:104BC0000BD314490E480F4A4FF4347304F0DBF949
:104BD0000C484FF4347103F0E7FF4444C4F82C55FB
:104BE000BDE8F0813B04D0D50B49064A044840F2A9
:104BF000BE2304F0C8F940F2BE21C3E7ABA8000011
:104C00004C9F000079A80000C0A80000D8A80000B0
:104C100002A9000023A90000E4A8000002685309CB
:104C200010B504462CD0012B4FF6FF7318BF00239C
:104C300002F01F02D340DB070BD414491448154A75
:104C400040F2292304F09FF9124840F2292103F091
:104C5000ABFF236803F01F025B0922600DD0012B1C
:104C600011D00D490A480B4A40F22E2304F08BF96B
:104C7000084840F22E2103F097FF4FF0A04010BDEE
:104C80004FF0FF33D4E70548F9E700BFFBA600006B
:104C90004C9F0000C8A60000E2A8000000030050DE
:104CA0002DE9F04F064687B0914698460C4649B923
:104CB00059495A485A4A8C2304F065F958488C21BE
:104CC00003F072FF3779574D0C2179436B181A7A2C
:104CD000002A40F09F80227B45F80190C3F80480B1
:104CE0009A72002A4DD0637B002B4AD0D6F8008000
:104CF000B4F808900123C8F80035B4F9083094F8E6
:104D000005B094F806A0002B0BDA47494348474A00
:104D10004FF4277304F037F944484FF4277103F038
:104D200043FFC8F80CB53068C8F804A5C8F8089562
:104D30006389C0F810350023C0F80032C0F8003392
:104D4000C0F81C31D0F81C21C0F81031D0F8102167
:104D5000C0F81431D0F81421C0F80431D0F804316F
:104D60000C237B43EB581BB140F30730FDF7C0F930
:104D70000C2303FB07552E4801232B7207B0BDE817
:104D8000F08F04F1FF390DF1080804F1030A19F856
:104D9000012FFF2A39D0217B22F0800BC8F800B008
:104DA000B1B91306CDF804B001A826D4FFF736FF39
:104DB000019901228A40C0F80C2501A8CDF804B061
:104DC000FFF72CFF019B03F5E073032240F823203B
:104DD000D14508F10408DAD1637B002B86D1336812
:104DE000029AC3F86025039AC3F86425049AC3F8AD
:104DF0006825059AC3F86C2578E7FFF70FFF01993E
:104E000001228A40C0F80825D7E74FF0FF33C8F8E1
:104E10000030DDE70748B1E781A900004C9F0000A2
:104E200046A90000FC0B00208AA9000079A8000018
:104E30000000AD0B0500AD0B2DE9F041984603795C
:104E40001446314A0E4603EB430102EB81070C2165
:104E500001FB032305461B7A5BB92C492C482D4ADC
:104E60004FF4967304F08FF82A484FF4967103F0CC
:104E70009BFE5CB928492648264A40F22D1304F0CF
:104E800082F8244840F22D1103F08EFE336803F0BF
:104E90006043B3F1005F0BD020491D481D4A4FF419
:104EA000977304F070F81B484FF4977103F07CFE81
:104EB000286832460021FFF735FE28683246012176
:104EC000FFF730FE286804F0010303EB540418F0E8
:104ED000010FC0F8144514D118F0020203D0002BC2
:104EE00014BF08220422002BC0F8002239465FFAC2
:104EF00088F218BF0C23BDE8F04108BF082304F076
:104F00003FBB1022EFE700BFFC0B0020ABA9000065
:104F10004C9F000046A90000D7A90000EAA90000A4
:104F200070B5124E04790C2202FB04620546127A17
:104F30005AB90F490F48104A4FF4D57304F023F8BB
:104F40000D484FF4D57103F02FFE0C232A6803FBA4
:104F50000464237AD2F80421DBB21AB9981E18BF70
:104F6000012070BD01202072FBE700BFFC0B002078
:104F7000ABA900004C9F000046A9000038B5144AB8
:104F800003790D460C2101FB032304461B7A5BB910
:104F900010491148114A40F2851303F0F4FF0F48FD
:104FA00040F2851103F000FE23680022C3F80022BE
:104FB00001225A602046FFF7B3FF38B92046FFF7B9
:104FC000AFFF18B9002DF9D1284638BD0125FBE700
:104FD000FC0B002013AA00004C9F000046A9000013
:104FE000034B1868A0F1080358425841704700BFAE
:104FF00030010010064B1B68082B06D1054B1B68BF
:10500000052B02D8044AD05C70470020704700BFCF
:1050100030010010340100105EAA0000024AD2F8EC
:105020000034002BFBD0704700E0014010B5FFF7C3
:10503000D7FF40B14FF080430022C3F80C21C3F8E2
:105040001021C3F83825FFF7CBFF002846D04FF0DA
:1050500080525B4BD2F80414C3F82015D2F8081420
:10506000C3F82415D2F80C14C3F82815D2F810147C
:10507000C3F82C15D2F81414C3F83015D2F818144C
:10508000C3F83415D2F81C14C3F84015D2F8201414
:10509000C3F84415D2F82414C3F84815D2F82814DC
:1050A000C3F84C15D2F82C14C3F85015D2F83014AC
:1050B000C3F85415D2F83414C3F86015D2F8381474
:1050C000C3F86415D2F83C14C3F86815D2F840143C
:1050D000C3F86C15D2F84424C3F87025FFF78AFF93
:1050E00010B1384B384A1A60FFF784FF18B1374BBC
:1050F000FB22C3F81825FFF77DFF48B13449354B33
:105100000A681B6822F00F0203F00F0313430B60C1
:10511000FFF770FF18B1304B4FF400721A60FFF7C1
:105120005FFF48B14FF08043D3F80024D20744BF5B
:105130006FF00102C3F80024284B1B68082B0ED126
:10514000274B1B68052B02D8264AD35C3BB14FF096
:105150001023D3F808224FF08043C3F858254FF0AE
:105160001023D3F80022002A03DBD3F80432002BEB
:1051700022DA1D490123C1F80435FFF74FFF4FF034
:1051800010201224C0F80042FFF748FFC0F8044284
:10519000FFF744FF0023C1F80435FFF73FFFBFF3DB
:1051A0004F8F1249124BCA6802F4E0621343CB607E
:1051B000BFF34F8F00BFFDE70E4B0F4A1A6010BDC3
:1051C00000C000408C5600404881030000F00040C1
:1051D000E40E0040580200104096024030010010DA
:1051E0003401001058AA000000E0014000ED00E08A
:1051F0000400FA05800100200090D00310B5144C83
:10520000144A1549032323616361144BA261E361CE
:105210004FF4806323620023A3626362E362226629
:105220000F4A6266E01D1022A2662367E366636789
:1052300003F0D9FEBFF35F8F0A49204603F0D3FE87
:10524000BFF35F8F2023A371BFF35F8F10BD00BF3B
:10525000080C002064AA00006DAA0000370D002091
:10526000270D002071AA00000E4B70B553F82040A6
:10527000013053F82060A64200D870BDD4E9003553
:105280002846984765B1EB6830B10028B8BF404266
:10529000FF28A8BFFF2018705A7842F001025A7008
:1052A0000834E8E73C9C000070B5054610B90024BE
:1052B000204670BD0378002BF9D00F4A0F4C1646DC
:1052C000944208D10D4CB442F1D0204604F083F949
:1052D00050B91834F7E7204604F07DF910B123687F
:1052E000AB42E5D01834EBE72168284603F095FE81
:1052F0000028EED1DCE700BF1C9900007498000084
:10530000F8B504460E464FF02003EFF3118783F300
:105310001288BFF36F8F01F0B9FE31460546204673
:1053200004F0ADF8042C0CD10A490B4A0B488F232A
:1053300003F029FE0A4803F026FE07488F2103F0F8
:1053400033FC87F31188BFF36F8F2846BDE8F84020
:10535000FDF77AB99AAA000078AA00004C9F0000D5
:10536000B7AA0000114CA26892F90E20002A08B5D5
:1053700009DA0F490F48104A272303F004FE0E48AC
:10538000272103F011FC4FF02002EFF3118382F389
:105390001288BFF36F8F02F06FFBA061FCF77CFDFA
:1053A0000028F0D1FCF72EFEEDE700BFB00C002086
:1053B0000DAB00004C9F0000ECAA000030B50023AC
:1053C00087B00122CDE904230F22CDE902320D4C32
:1053D0000D4A01930D49182304EBC01403FB00236D
:1053E0004FF4B075009305FB0011094B4FF4A07208
:1053F000204602F067F8637B23F00403637307B071
:1054000030BD00BF10040020B00C0020802300201D
:105410006553000008B50A4B012202201A70FFF7FD
:1054200023FF03F059F80320FFF71EFF02F0FCF8FA
:10543000FBF728FB034A137B23F00103137308BD1A
:1054400037110020900400200248034A0021121A5C
:1054500003F0FABD70020020F412002080B5DFF8DE
:10546000D880A6B088F308882D4D2E4E6B69DFF8E2
:10547000CC9043F4007300246B61E02385F8223064
:10548000EC772C766C76AC7685F820406B6A43F42A
:10549000E0236B6285F82340FDF780F8FCF7ACFD54
:1054A0004FF0FF33AB62EB62FDF7A8F9FDF7DEF8D2
:1054B00040F20113ADF8243006ABB360CDE92044CF
:1054C00004F088F82046FFF7CFFE0120164DFFF7C5
:1054D000CBFE01F045FC154B0593012314490094C4
:1054E000CDE903434FF480624B46CDE901442846A1
:1054F000F56101F0E7FF6A7B22F004026A73074658
:10550000284601F02DF82046FFF758FF094BF360BD
:105510004A46394628463475C6F80480FCF7A6FE8C
:1055200000ED00E0B00C00209004002035AB00003E
:10553000601F002010040020002D002015540000E2
:105540002DE9F041164D174C174EA846AC420CD928
:10555000164917483C23324603F015FD154803F061
:1055600012FD3C21304603F01FFB444502D30020CE
:10557000BDE8F081D4E9042141EA020313F00303FA
:105580000BD1E068A361834201D12034DEE7A76933
:105590000F600133A1611144F5E76FF01500E7E7F3
:1055A00008020020080200203AAB00005FAB0000B8
:1055B0004C9F00007CAB00002DE9F74304460E46EB
:1055C0009046994600F108054FF02003EFF311874C
:1055D00083F31288BFF36F8F284602F0B5F868B9DD
:1055E000244A25492548812303F0CDFC2448294637
:1055F00003F0C9FC1F48812103F0D6FA284602F0C7
:10560000C1F8A369EBB133601B68A361E36901339F
:10561000E3610024284602F0A5F868B9154A194943
:105620001648AC2303F0AFFC1748294603F0ABFC47
:105630001048AC2103F0B8FA87F31188BFF36F8FDD
:1056400013E058EA090203D133606FF00B04E1E77D
:105650002246CDE900893946284601F033F904464F
:1056600018B90A4B9B685B693360204603B0BDE8FC
:10567000F08300BF0FA2000061A200004C9F000059
:1056800076A2000035A200004CA20000B00C002061
:105690002DE9F04104460E4600F108054FF02003C5
:1056A000EFF3118783F31288BFF36F8F284602F060
:1056B0004BF868B9224A23492348812303F063FC4D
:1056C0002248294603F05FFC1D48812103F06CFA53
:1056D000284602F057F8D4F81880B8F1000F0FD11F
:1056E000204601F0EDFA58B132684261C0F87C8082
:1056F00000F036FF39462846BDE8F04100F090BC86
:105700003368A2691A603368A361E369013BE3610E
:10571000284602F027F868B9094A0D490A48AC231F
:1057200003F031FC0B48294603F02DFC0448AC2162
:1057300003F03AFA87F31188BFF36F8FBDE8F08169
:105740000FA2000061A200004C9F000076A20000A2
:1057500035A200004CA200002DE9F3410446164694
:105760001F46EFF3058363B17049714A71486523A1
:1057700003F009FC704803F006FC6D48652103F056
:1057800013FA4FF02003EFF3118883F31288BFF36D
:105790006F8F6A4801F0D8FF68B9694A694965485E
:1057A000812303F0F0FB6549674803F0ECFB644894
:1057B000812103F0F9F9614801F0E4FFE368634AED
:1057C000FBB1A068916888423DD056EA07033CD1FE
:1057D0005A4801F0C7FF68B9594A5D495548AC239A
:1057E00003F0D1FB55495B4803F0CDFB5448AC2195
:1057F00003F0DAF988F31188BFF36F8F6FF00F00B1
:105800001EE0916891F90E104C4821610133E3606C
:105810009368A36001F0A6FF68B9494A4C4945481E
:10582000AC2303F0B0FB45494A4803F0ACFB4448C5
:10583000AC2103F0B9F988F31188BFF36F8F002012
:1058400002B0BDE8F0812169DEE791F90E1090F910
:105850000E309942A8BF19466FF07E029142B8BF40
:1058600011468B4244DD01F05DF80546CDE9006745
:1058700032482246414601F025F80028E0D04FF09A
:105880002003EFF3118683F31288BFF36F8F2B4849
:1058900001F05AFF68B92A4A2A492648812303F0B1
:1058A00072FB2649284803F06EFB2548812103F04E
:1058B0007BF9224801F066FF236821699C420AD0E7
:1058C0004BB193F90E309942A8BF19466FF07E0391
:1058D0009942B8BF1946A06890F90E30994209D193
:1058E0006DB11648314600F09BFB6FF00A00A7E748
:1058F0000025BBE701F016F80028F2D1F0E70F48C9
:1059000001F030FF68B90E4A11490A48AC2303F090
:105910003AFB0A490F4803F036FB0948AC2103F073
:1059200043F986F31188BFF36F8FDEE7BDAB00004C
:105930009BAB00004C9F0000CFAB0000D80C0020B8
:105940000FA2000061A2000076A20000B00C0020AF
:1059500035A200004CA2000038B50446EFF30583E1
:1059600063B15249524A5348C72303F00CFB5248D3
:1059700003F009FB4E48C72103F016F9A368002B7A
:1059800000F08D804D4DAA68934240F08B80E36813
:105990004BB94B494748464ADF2303F0F4FA4448E1
:1059A000DF2103F001F9EFF3058363B13F49454A75
:1059B0004048FD2303F0E7FA434803F0E4FA414886
:1059C000FD2103F0F1F8AB68DB7B012B0CD13F49E3
:1059D0003C4A3848FE2303F0D6FA3B4803F0D3FA9A
:1059E0003848FE2103F0E0F8AA68D37B013BD3736B
:1059F000E368012B05D9013BE36001F099F8002031
:105A000038BD4FF02003EFF3118583F31288BFF305
:105A10006F8F2F4801F098FE68B92E4A2E4925480D
:105A2000812303F0B0FA2A492C4803F0ACFA294844
:105A3000812103F0B9F8264801F0A4FEA06821698D
:105A400090F90E30994201D000F06CFF204601F031
:105A500037F9A06058B190F90E2022610022C26788
:105A600000F07EFD1A48294600F0DAFAC5E7E0604A
:105A7000174801F077FE68B9164A19490D48AC235A
:105A800003F081FA1249174803F07DFA1148AC215E
:105A900003F08AF885F31188BFF36F8FADE76FF0DD
:105AA0001500ADE74FF0FF30AAE700BFBDAB000027
:105AB0009BAB00004C9F0000CFAB0000B00C00205F
:105AC000F4AB00000BAC000036AC000039AC0000B9
:105AD000D80C00200FA2000061A2000076A20000F6
